{
  "contractName": "SolidityArrays",
  "abi": [
    {
      "constant": true,
      "inputs": [
        {
          "internalType": "uint256",
          "name": "",
          "type": "uint256"
        }
      ],
      "name": "ids",
      "outputs": [
        {
          "internalType": "uint256",
          "name": "",
          "type": "uint256"
        }
      ],
      "payable": false,
      "stateMutability": "view",
      "type": "function"
    },
    {
      "constant": false,
      "inputs": [
        {
          "internalType": "uint256",
          "name": "_id",
          "type": "uint256"
        }
      ],
      "name": "add",
      "outputs": [],
      "payable": false,
      "stateMutability": "nonpayable",
      "type": "function"
    },
    {
      "constant": true,
      "inputs": [
        {
          "internalType": "uint256",
          "name": "_id",
          "type": "uint256"
        }
      ],
      "name": "get",
      "outputs": [
        {
          "internalType": "uint256",
          "name": "",
          "type": "uint256"
        }
      ],
      "payable": false,
      "stateMutability": "view",
      "type": "function"
    },
    {
      "constant": true,
      "inputs": [],
      "name": "getAll",
      "outputs": [
        {
          "internalType": "uint256[]",
          "name": "",
          "type": "uint256[]"
        }
      ],
      "payable": false,
      "stateMutability": "view",
      "type": "function"
    },
    {
      "constant": true,
      "inputs": [],
      "name": "getLength",
      "outputs": [
        {
          "internalType": "uint256",
          "name": "",
          "type": "uint256"
        }
      ],
      "payable": false,
      "stateMutability": "view",
      "type": "function"
    },
    {
      "constant": true,
      "inputs": [],
      "name": "getLength2",
      "outputs": [
        {
          "internalType": "uint256",
          "name": "",
          "type": "uint256"
        }
      ],
      "payable": false,
      "stateMutability": "view",
      "type": "function"
    }
  ],
  "bytecode": "0x608060405234801561001057600080fd5b506102c9806100206000396000f3fe608060405234801561001057600080fd5b50600436106100625760003560e01c80631003e2d2146100675780632aab02d01461009557806353ed5143146100b35780639507d39a14610112578063be1c766b14610154578063fac333ac14610172575b600080fd5b6100936004803603602081101561007d57600080fd5b81019080803590602001909291905050506101b4565b005b61009d6101e3565b6040518082815260200191505060405180910390f35b6100bb6101ef565b6040518080602001828103825283818151815260200191508051906020019060200280838360005b838110156100fe5780820151818401526020810190506100e3565b505050509050019250505060405180910390f35b61013e6004803603602081101561012857600080fd5b8101908080359060200190929190505050610247565b6040518082815260200191505060405180910390f35b61015c610267565b6040518082815260200191505060405180910390f35b61019e6004803603602081101561018857600080fd5b8101908080359060200190929190505050610273565b6040518082815260200191505060405180910390f35b600081908060018154018082558091505090600182039060005260206000200160009091929091909150555050565b60008080549050905090565b6060600080548060200260200160405190810160405280929190818152602001828054801561023d57602002820191906000526020600020905b815481526020019060010190808311610229575b5050505050905090565b600080828154811061025557fe5b90600052602060002001549050919050565b60008080549050905090565b6000818154811061028057fe5b90600052602060002001600091509050548156fea265627a7a7231582001233daf645ec7417d938bc22d8107fecce13739a418d2194d50ba95d7f6e8b464736f6c63430005100032",
  "source": "// SPDX-License-Identifier: MIT\r\npragma solidity >=0.4.22 <0.9.0;\r\n\r\n\r\ncontract SolidityArrays{\r\n\r\n  uint256[] public ids;\r\n\r\n  function add(uint256 _id) public{\r\n    ids.push(_id);\r\n  }\r\n\r\n  function get(uint256 _id) view public returns(uint256){\r\n    return ids[_id];\r\n  }\r\n\r\n  function getAll() view public returns (uint256[] memory){\r\n      return ids;\r\n  }\r\n\r\n  function getLength() view public returns(uint256){\r\n    return ids.length;\r\n  }\r\n\r\n  function getLength2() view public returns(uint256){\r\n    return ids.length;\r\n  }\r\n\r\n}\r\n",
  "sourcePath": "C:/Users/Lexis/Documents/truffleProjects/TestProject/contracts/SolidityArrays.sol",
  "compiler": {
    "name": "solc",
    "version": "0.5.16+commit.9c3226ce.Emscripten.clang"
  },
  "schemaVersion": "3.4.0",
  "updatedAt": "2021-05-05T12:00:46.331Z",
  "devdoc": {
    "methods": {}
  },
  "userdoc": {
    "methods": {}
  }
}